{
  "contractName": "Kryptobird",
  "abi": [
    {
      "inputs": [],
      "stateMutability": "nonpayable",
      "type": "constructor"
    },
    {
      "anonymous": false,
      "inputs": [
        {
          "indexed": true,
          "internalType": "address",
          "name": "from",
          "type": "address"
        },
        {
          "indexed": true,
          "internalType": "address",
          "name": "to",
          "type": "address"
        },
        {
          "indexed": true,
          "internalType": "uint256",
          "name": "tokenID",
          "type": "uint256"
        }
      ],
      "name": "Transfer",
      "type": "event"
    },
    {
      "inputs": [
        {
          "internalType": "uint256",
          "name": "",
          "type": "uint256"
        }
      ],
      "name": "Kryptobirdz",
      "outputs": [
        {
          "internalType": "string",
          "name": "",
          "type": "string"
        }
      ],
      "stateMutability": "view",
      "type": "function",
      "constant": true
    },
    {
      "inputs": [],
      "name": "name",
      "outputs": [
        {
          "internalType": "string",
          "name": "",
          "type": "string"
        }
      ],
      "stateMutability": "view",
      "type": "function",
      "constant": true
    },
    {
      "inputs": [],
      "name": "symbol",
      "outputs": [
        {
          "internalType": "string",
          "name": "",
          "type": "string"
        }
      ],
      "stateMutability": "view",
      "type": "function",
      "constant": true
    },
    {
      "inputs": [
        {
          "internalType": "string",
          "name": "_kryptoBird",
          "type": "string"
        }
      ],
      "name": "mint",
      "outputs": [],
      "stateMutability": "nonpayable",
      "type": "function"
    }
  ],
  "bytecode": "0x60806040526040518060400160405280600981526020017f4b7279746f626972640000000000000000000000000000000000000000000000815250600690805190602001906200005192919062000212565b506040518060400160405280600381526020017f4b525a0000000000000000000000000000000000000000000000000000000000815250600790805190602001906200009f92919062000212565b50348015620000ad57600080fd5b5060068054620000bd90620002f1565b80601f0160208091040260200160405190810160405280929190818152602001828054620000eb90620002f1565b80156200013c5780601f1062000110576101008083540402835291602001916200013c565b820191906000526020600020905b8154815290600101906020018083116200011e57829003601f168201915b5050505050600780546200015090620002f1565b80601f01602080910402602001604051908101604052809291908181526020018280546200017e90620002f1565b8015620001cf5780601f10620001a357610100808354040283529160200191620001cf565b820191906000526020600020905b815481529060010190602001808311620001b157829003601f168201915b505050505081818160009080519060200190620001ee92919062000212565b5080600190805190602001906200020792919062000212565b505050505062000327565b8280546200022090620002f1565b90600052602060002090601f01602090048101928262000244576000855562000290565b82601f106200025f57805160ff191683800117855562000290565b8280016001018555821562000290579182015b828111156200028f57825182559160200191906001019062000272565b5b5090506200029f9190620002a3565b5090565b5b80821115620002be576000816000905550600101620002a4565b5090565b7f4e487b7100000000000000000000000000000000000000000000000000000000600052602260045260246000fd5b600060028204905060018216806200030a57607f821691505b60208210811415620003215762000320620002c2565b5b50919050565b610c4080620003376000396000f3fe608060405234801561001057600080fd5b506004361061004c5760003560e01c806306fdde031461005157806395d89b411461006f578063d85d3d271461008d578063f5dcf3da146100a9575b600080fd5b6100596100d9565b604051610066919061071c565b60405180910390f35b61007761016b565b604051610084919061071c565b60405180910390f35b6100a760048036038101906100a29190610887565b6101fd565b005b6100c360048036038101906100be9190610906565b610300565b6040516100d0919061071c565b60405180910390f35b6060600080546100e890610962565b80601f016020809104026020016040519081016040528092919081815260200182805461011490610962565b80156101615780601f1061013657610100808354040283529160200191610161565b820191906000526020600020905b81548152906001019060200180831161014457829003601f168201915b5050505050905090565b60606001805461017a90610962565b80601f01602080910402602001604051908101604052809291908181526020018280546101a690610962565b80156101f35780601f106101c8576101008083540402835291602001916101f3565b820191906000526020600020905b8154815290600101906020018083116101d657829003601f168201915b5050505050905090565b60058160405161020d91906109d0565b908152602001604051809103902060009054906101000a900460ff1615610269576040517f08c379a000000000000000000000000000000000000000000000000000000000815260040161026090610a33565b60405180910390fd5b6004819080600181540180825580915050600190039060005260206000200160009091909190915090805190602001906102a49291906105e0565b50600060016004805490506102b99190610a82565b90506102c533826103ac565b60016005836040516102d791906109d0565b908152602001604051809103902060006101000a81548160ff0219169083151502179055505050565b6004818154811061031057600080fd5b90600052602060002001600091509050805461032b90610962565b80601f016020809104026020016040519081016040528092919081815260200182805461035790610962565b80156103a45780601f10610379576101008083540402835291602001916103a4565b820191906000526020600020905b81548152906001019060200180831161038757829003601f168201915b505050505081565b600073ffffffffffffffffffffffffffffffffffffffff168273ffffffffffffffffffffffffffffffffffffffff16141561041c576040517f08c379a000000000000000000000000000000000000000000000000000000000815260040161041390610b28565b60405180910390fd5b6104258161056e565b15610465576040517f08c379a000000000000000000000000000000000000000000000000000000000815260040161045c90610b94565b60405180910390fd5b816002600083815260200190815260200160002060006101000a81548173ffffffffffffffffffffffffffffffffffffffff021916908373ffffffffffffffffffffffffffffffffffffffff1602179055506001600360008473ffffffffffffffffffffffffffffffffffffffff1673ffffffffffffffffffffffffffffffffffffffff16815260200190815260200160002060008282546105079190610bb4565b92505081905550808273ffffffffffffffffffffffffffffffffffffffff16600073ffffffffffffffffffffffffffffffffffffffff167fddf252ad1be2c89b69c2b068fc378daa952ba7f163c4a11628f55a4df523b3ef60405160405180910390a45050565b6000806002600084815260200190815260200160002060009054906101000a900473ffffffffffffffffffffffffffffffffffffffff169050600073ffffffffffffffffffffffffffffffffffffffff168173ffffffffffffffffffffffffffffffffffffffff161415915050919050565b8280546105ec90610962565b90600052602060002090601f01602090048101928261060e5760008555610655565b82601f1061062757805160ff1916838001178555610655565b82800160010185558215610655579182015b82811115610654578251825591602001919060010190610639565b5b5090506106629190610666565b5090565b5b8082111561067f576000816000905550600101610667565b5090565b600081519050919050565b600082825260208201905092915050565b60005b838110156106bd5780820151818401526020810190506106a2565b838111156106cc576000848401525b50505050565b6000601f19601f8301169050919050565b60006106ee82610683565b6106f8818561068e565b935061070881856020860161069f565b610711816106d2565b840191505092915050565b6000602082019050818103600083015261073681846106e3565b905092915050565b6000604051905090565b600080fd5b600080fd5b600080fd5b600080fd5b7f4e487b7100000000000000000000000000000000000000000000000000000000600052604160045260246000fd5b610794826106d2565b810181811067ffffffffffffffff821117156107b3576107b261075c565b5b80604052505050565b60006107c661073e565b90506107d2828261078b565b919050565b600067ffffffffffffffff8211156107f2576107f161075c565b5b6107fb826106d2565b9050602081019050919050565b82818337600083830152505050565b600061082a610825846107d7565b6107bc565b90508281526020810184848401111561084657610845610757565b5b610851848285610808565b509392505050565b600082601f83011261086e5761086d610752565b5b813561087e848260208601610817565b91505092915050565b60006020828403121561089d5761089c610748565b5b600082013567ffffffffffffffff8111156108bb576108ba61074d565b5b6108c784828501610859565b91505092915050565b6000819050919050565b6108e3816108d0565b81146108ee57600080fd5b50565b600081359050610900816108da565b92915050565b60006020828403121561091c5761091b610748565b5b600061092a848285016108f1565b91505092915050565b7f4e487b7100000000000000000000000000000000000000000000000000000000600052602260045260246000fd5b6000600282049050600182168061097a57607f821691505b6020821081141561098e5761098d610933565b5b50919050565b600081905092915050565b60006109aa82610683565b6109b48185610994565b93506109c481856020860161069f565b80840191505092915050565b60006109dc828461099f565b915081905092915050565b7f4572726f72202d206b727974706f6269727a20616c7265616479206578697374600082015250565b6000610a1d60208361068e565b9150610a28826109e7565b602082019050919050565b60006020820190508181036000830152610a4c81610a10565b9050919050565b7f4e487b7100000000000000000000000000000000000000000000000000000000600052601160045260246000fd5b6000610a8d826108d0565b9150610a98836108d0565b925082821015610aab57610aaa610a53565b5b828203905092915050565b7f455243373231203a206d696e74696e67206572726f72205b7a65726f2061646460008201527f726573735d000000000000000000000000000000000000000000000000000000602082015250565b6000610b1260258361068e565b9150610b1d82610ab6565b604082019050919050565b60006020820190508181036000830152610b4181610b05565b9050919050565b7f4552433732313a746f6b656e20416c7265616479206d696e7465640000000000600082015250565b6000610b7e601b8361068e565b9150610b8982610b48565b602082019050919050565b60006020820190508181036000830152610bad81610b71565b9050919050565b6000610bbf826108d0565b9150610bca836108d0565b9250827fffffffffffffffffffffffffffffffffffffffffffffffffffffffffffffffff03821115610bff57610bfe610a53565b5b82820190509291505056fea264697066735822122041b565ea13821ffc259ab95144e434a437a09d71529f7800051a750c8cdc2c2f64736f6c634300080b0033",
  "immutableReferences": {},
  "source": "// SPDX-License-Identifier: MIT\r\npragma solidity >=0.4.22 <0.9.0;\r\n\r\nimport \"./ERC721Connector.sol\";\r\n\r\ncontract Kryptobird is ERC721Connector {\r\n    // set array nft untuk di mint \r\n    string[] public Kryptobirdz;\r\n\r\n    //set mapping untuk track apakah nft sudah di mapping atau tidak ;\r\n    mapping(string=>bool) _kriptoBirdzExists;\r\n\r\n\r\n    string private name=\"Krytobird\";\r\n    string private symbol=\"KRZ\";\r\n\r\n    function mint (string memory _kryptoBird ) public {\r\n        // sebelum jalan kan mint maka harus cek apakah krypto sudah dimint atau belm \r\n        require(!_kriptoBirdzExists[_kryptoBird],\"Error - krytpobirz already exist\");\r\n\r\n       Kryptobirdz.push(_kryptoBird); \r\n        uint _id =Kryptobirdz.length - 1;\r\n        // memanggil function yang ada di Connector yang sudah dihubungkan dengan ERC721.\r\n        _mint(msg.sender, _id);\r\n\r\n        //setiap mint nft maka harus set mapping true ke mapping _kriptoBirdzExists \r\n        _kriptoBirdzExists[_kryptoBird]=true;\r\n    }\r\n\r\n    constructor() ERC721Connector(name, symbol) {}\r\n}\r\n",
  "sourcePath": "E:\\Gandhiwiria\\Learn token\\learnToken\\src\\contracts\\Kryptobird.sol",
  "compiler": {
    "name": "solc",
    "version": "0.8.11+commit.d7f03943.Emscripten.clang"
  },
  "schemaVersion": "3.4.4",
  "updatedAt": "2022-01-20T06:35:42.228Z",
  "networkType": "ethereum",
  "devdoc": {
    "kind": "dev",
    "methods": {},
    "version": 1
  },
  "userdoc": {
    "kind": "user",
    "methods": {},
    "version": 1
  }
}